:100985008F268E258D248C23E5262513F526E52532
:100995003512F525E5243511F524E5233510F52324
:1009A500AF13AE12AD11AC10AB26AA25A924A8230E
:0709B500D312019850EA2261
:100A83008F22AF221522EF600D7F647E007D007CF4
:070A93000012098580EC222E
:100ADA0075BA8090FE00E4F0A37402F0E4F5BA223D
:10000E00538E7F5389F0758A18758CFCC28DD28CF5
:05001E00D2A9D2AF22BF
:10002600013500013200C100C10401330001360070
:0600360001380001390051
:1007AF00C29743B18053B27FC2AF120ADA12000E62
:1007BF00120A1A120A42D2AFC296C2B57F28120A83
:1007CF0083439180439280C2977F28120A83D20578
:1007DF00120A6990013FE07011900140E07004A38C
:0F07EF00E06007E4900140F0A3F01206E780E419
:03000B000203D21B
:0D03D200C0E0C0F0C083C082C0D075D0185C
:1003DF000530AF13AE12AD11AC10EF2401F513E4DD
:1003EF003EF512E43DF511E43CF510900014E0D316
:1003FF0094004003E014F0E530C394144075753059
:10040F0000A2B24003D38001C3920CE4FF12066432
:10041F00A2B34003D38001C3920C7F0112066490F4
:10042F000011E0D394004003E014F00538E538C321
:10043F009405403C753800B2080539E539940A40F7
:10044F002F753900B207E537D3940040021537E511
:10045F0034D3940040021534E531D3940040057530
:10046F003705153190013FE0D394004003E014F0BD
:03047F00120AEA74
:0B048200D0D0D082D083D0F0D0E03288
:10089200900145E014600E14600F1460122403707E
:1008A20012D2B4800EC2B4800AA20892B48004A20A
:1008B2000792B4900142E014600D14600D14600FB1
:1008C2002403700FD2CD22C2CD22A20892CD22A241
:0408D2000792CD229A
:030AEA000208926D
:1009F200E4F593F594F591F592F595F596F5B1F543
:100A0200B2F5B3F5B453B1EF53B2EF53B1DF53B212
:080A1200DF53B1F353B2F322EC
:100AB100E4900145F0900144F0900143F09001422F
:060AC100F0D2B4D2CD22F8
:05003C0042014000003C
:10066400E4FE300C4675370574392FF582E4340105
:10067400F583E0C394FF500D74392FF582E43401FF
:10068400F583E004F074392FF582E43401F583E056
:100694006464704EEF2481FF74402EF582E43401CB
:1006A400F583EFF090013F7405F02274392FF58241
:1006B400E43401F583E0FDD39402401AED946450D0
:1006C40015EF04FD74402EF582E43401F583EDF05A
:1006D40090013F7405F074392FF582E43401F583F9
:0206E400E4F040
:0106E60022F1
:100A9A00E537D3940040012220B202800320B30537
:070AAA00753705C322D322BA
:060003004F4B350D0A0011
:100A1A00759850438E40538EFE53890F758BC87557
:100A2A008DFED28ED2AC43B8107E007F0B7D007B48
:080A3A00017A0079000201A914
:100A4200759A50438E0475D7C875D6FE438E1075BD
:100A5200AF0143B50143B6017E007F0B7D007B01F0
:070A62007A00790B0201A9E3
:10094C00900003E0FCA3E024ACF58274003CF5833A
:10095C00EFF0900003E475F001120182FEC3E5F0A4
:10096C009432EE94004007E4900003F0A3F0900062
:09097C0005E0700404F0D2992298
:0A08D6008B228A2389248C258D26AD
:1008E000E4F527F528F527F528C3E5289526E5271B
:1008F0009525501DAB22AA23A9248528828527830C
:10090000120155FF12094C0528E52870DC052780E7
:01091000D80E
:0109110022C3
:100AC70012013CFF600C12094C740129F9E43AFA4F
:030AD70080EE228C
:0F07FE00EFF07B017A017910900124E0FD7C007F
:0A080D008B298A2A892B8C2C8D2D53
:10081700E4F52EF52FF52EF52FC3E52F952DE52EB3
:10082700952C501DAB29AA2AA92B852F82852E83AB
:10083700120155FF120912052FE52F70DC052E80D6
:01084700D8D8
:01084800228D
:1009120090000EE0FCA3E024DEF58274003CF58337
:10092200EFF090000EE475F001120182FEC3E5F0D3
:100932009432EE94004007E490000EF0A3F0900091
:0A09420010E0700504F0439A022251
:0300230002048D47
:10048D00C0E0C0F0C083C082C0D075D008309842A3
:10049D00C29890000AE0703AC3900008E094329040
:1004AD000007E094004004E4F0A3F0900007E0FEA4
:1004BD00A3E02416F58274003EF583E599F09000D3
:1004CD0008E004F07006900007E004F09000097455
:1004DD0005F0309949C299900003E0FEA3E0FF902A
:1004ED000001E0FCA3E0FD6F7002EC6E602B74ACBC
:1004FD002DF58274003CF583E0F599900001E475CB
:10050D00F001120182FEC3E5F09432EE9400400E2C
:10051D00900001E4F0A3F08005900005E4F0D0D048
:09052D00D082D083D0F0D0E0327E
:030043000202FEB8
:1002FE00C0E0C0F0C083C082C0D075D008E59A308F
:10030E00E065753705539AFEC3900013E094649030
:10031E000012E094004004E4F0A3F0900012E0FE1E
:10032E00A3E02448F58274003EF583E59BF090002F
:10033E0013E004F07006900012E004F090001474C4
:10034E00C8F0900048E0B4FF17D3900013E094017A
:10035E00900012E09400400F900049E064AA6007FC
:10036E00900012E4F0A3F0E59A30E14D7537055395
:10037E009AFD90000EE0FEA3E0FF90000CE0FCA3BF
:10038E00E0FD6F7002EC6E602B74DE2DF582740052
:10039E003CF583E0F59B90000CE475F001120182B0
:1003AE00FEC3E5F09432EE9400400E90000CE4F0A3
:1003BE00A3F08005900010E4F0D0D0D082D083D08E
:0403CE00F0D0E03259
:1006E700900011E07003120536900014E0706690D8
:1006F7000012E0FCA3E0FDD39400EC940040567B8D
:10070700017A0079481208D67B017A00794890006F
:1007170012A3E0FD1201D5E515B4050E7B017A00A1
:100727007948AD171201D5E4F5157B017A007948B0
:10073700900012E0FCA3E0FD1208D6900012E0FE44
:10074700A3E0FF7D007B017A0079481201A9E490BC
:060757000012F0A3F022E5
:10075D00EF24CE6026047049BD3006E4900142F0CE
:10076D0022BD31059001428021BD320590014280AC
:10077D0023ED6433702B9001428023BD3006E4904D
:10078D000145F022BD31079001457401F022BD32C3
:10079D00079001457402F022BD33069001457403A4
:0207AD00F02238
:0E09BC002407FF900124F0FD7B017A017910E1
:0609CA008B298A2A892B0B
:1009D000E4FFFEED14FCEEC39C5013AB29AA2AA938
:1009E0002B8E827583001201552FFF0E80E5630761
:0109F000FF07
:0109F10022E3
:08084900AB22AA23A924AD276C
:020851008D28F0
:10085300AF287E0078257C017D01120116900128C6
:10086300E04480F0A3E04480F07B017A017925AD78
:10087300281209CA74242528F582E43401F583EF8C
:0F088300F07B017A017925E528FD7C0002080D44
:0801D5008D258B228A23892469
:1001DD0012013CF460030202FD900001120155640E
:1001ED00AA60030202FD7FAA12094CAB22AA23A921
:1001FD00249000051201552407F527D395254003BA
:10020D000202FD7FBB12094CAB22AA23A924AD2704
:10021D001209CAE5277C0024FFF582EC34FFF58333
:10022D00AB22AA23A9241201556F60030202FD7FA0
:10023D00CC12094CC20AE4F514AB22AA23A92490CE
:10024D00000412015524FA602614605A147003023A
:10025D0002F8248724FD50030202FD9000021201D2
:10026D0055651660030202FDC20AC209C20B227B4C
:10027D00FF7A007903120AC7E4F526E5262431FF3B
:10028D00E5262406F582E433F583AB22AA23A924BF
:10029D001201552430FD12075D0526E526C3940293
:1002AD0040D9C2068047D201D20A120849AF277E33
:1002BD00007D007B017A0079481201A9E525D395CF
:1002CD0027402DE5259527FFE49400FE744825274A
:1002DD00F9E43400FA7B0178487C007D01120116A7
:1002ED00C3E5259527F51775150522C20112084995
:0102FD0022DE
:10053600300B030205D7900140E060616486605D80
:10054600051690011074FFF0A374AAF0A3E516F047
:10055600A37401F0A304F0A3F0900140E0FE540F51
:10056600900116F0EE30E706A37402F080069001C3
:10057600177401F0900115E01209BC9001181207DA
:10058600FE9000117432F0D209900141E0600890AB
:100596000140F0E4A3F022E4900140F022E534703B
:1005A6003020012D051675347890011074FFF0A3E4
:1005B60074AAF0A3E516F0A37401F0A3F0E4A3F087
:1005C6001209BC9001161207FE9000117432F0D287
:0205D6000922F8
:100A6900D20AC201753705753478E4900140F0A3C4
:0A0A7900F0900145F0900142F022D8
:030000000205D81E
:0C05D800787FE4F6D8FD75813A02061F1A
:10004600E709F608DFFA8046E709F208DFFA803E9C
:1000560088828C83E709F0A3DFFA8032E309F60889
:10006600DFFA8078E309F208DFFA807088828C83F1
:10007600E309F0A3DFFA806489828A83E0A3F608A5
:10008600DFFA805889828A83E0A3F208DFFA804C7F
:1000960080D280FA80C680D4806980F28033801056
:1000A60080A680EA809A80A880DA80E280CA8033BF
:1000B60089828A83ECFAE493A3C8C582C8CCC58337
:1000C600CCF0A3C8C582C8CCC583CCDFE9DEE78007
:1000D6000D89828A83E493A3F608DFF9ECFAA9F086
:1000E600EDFB2289828A83ECFAE0A3C8C582C8CCDC
:1000F600C583CCF0A3C8C582C8CCC583CCDFEADEF5
:10010600E880DB89828A83E493A3F208DFF980CC56
:1001160088F0EF60010E4E60C388F0ED2402B4044F
:100126000050B9F582EB2402B4040050AF232345F6
:0601360082239000967385
:10013C00BB010689828A83E0225002E722BBFE02C1
:09014C00E32289828A83E49322F4
:10015500BB010CE58229F582E5833AF583E022505F
:1001650006E92582F8E622BBFE06E92582F8E222A9
:0D017500E58229F582E5833AF583E49322C3
:10018200C5F0F8A3E028F0C5F0F8E5821582700208
:060192001583E038F022A5
:10019800EB9FF5F0EA9E42F0E99D42F0E89C45F0BD
:0101A8002234
:1001A900EF4E6012EF60010EEDBB010B89828A836D
:1001B900F0A3DFFCDEFA2289F05007F709DFFCA97A
:0C01C900F022BBFEFCF309DFFCA9F022D1
:1005E4000207AFE493A3F8E493A34003F68001F277
:1005F40008DFF48029E493A3F85407240CC8C33318
:10060400C4540F4420C8834004F456800146F6DFE6
:10061400E4800B0102040810204080900026E47E50
:10062400019360BCA3FF543F30E509541FFEE493DB
:10063400A360010ECF54C025E060A840B8E493A3A2
:10064400FAE493A3F8E493A3C8C582C8CAC583CACD
:10065400F0A3C8C582C8CAC583CADFE9DEE780BE85
:0100410000BE
:00000001FF
