:10080D008F268E258D248C23E5262513F526E525AB
:10081D003512F525E5243511F524E5233510F5239D
:10082D00AF13AE12AD11AC10AB26AA25A924A82387
:07083D00D312019850EA22DA
:1008B7008F22AF221522EF600D7F647E007D007CC2
:0708C7000012080D80EC2275
:1009220075BA8090FE00E4F0A37402F0E4F5BA22F6
:1008FB00538E7F5389F0758A18758CFCC28DD28C00
:05090B00D2A9D2AF22C9
:10089B00013500013200C100C104013300013600F3
:0608AB00013800013900D4
:10091000D20AC201753705753402E490009FF0A336
:02092000F022C3
:1005E900C297C2AF1209221208FB12087AD2AFC20F
:1005F90096C2B57F281208B7439180439280C2976B
:100609007F281208B7D20512091090009EE07011D8
:1006190090009FE07004A3E06007E490009FF0A3BE
:10062900F02001E690009FE064866005A3E0B486AF
:0F06390009D203E490009FF0A3F01208CE5026E0
:1006480075AAA075AB8075870200000000B2080586
:100658002FE52FC3940A400EE4F52FB207E534D3F3
:060668009400400215346D
:05066E0012079580A0B9
:03000B000202AF3F
:0D02AF00C0E0C0F0C083C082C0D075D01880
:1002BC000530AF13AE12AD11AC10EF2401F513E401
:1002CC003EF512E43DF511E43CF510900009E0D345
:1002DC0094004003E014F0E530C39414407575307D
:1002EC0000A2B24003D38001C3920CE4FF1204CAF3
:1002FC00A2B34003D38001C3920C7F011204CA90B5
:10030C000006E0D394004003E014F00538E538C350
:10031C009405403F753800433502B2080539E5397C
:10032C00940A402F753900B207E537D39400400288
:10033C001537E534D3940040021534E531D39400DD
:10034C004005753705153190009EE0D394004003AD
:03035C00E014F0BA
:0B035F00D0D0D082D083D0F0D0E032AC
:100710009000A4E014600E14600F146012240370A3
:1007200012D2B4800EC2B4800AA20892B48004A28D
:100730000792B49000A1E014600D14600D14600FD6
:100740002403700FD2CD22C2CD22A20892CD22A2C4
:040750000792CD221D
:10000E00E4F593F594F591F592F595F596F5B1F530
:10001E00B2F5B3F5B453B1EF53B2EF53B1DF53B200
:08002E00DF53B1F353B2F322DA
:1008E500E49000A4F09000A3F09000A2F09000A185
:0608F500F0D2B4D2CD22C6
:0508B10042009F000061
:1004CA0090009FE060047E018002E4FE300C4975D2
:1004DA00370574982FF582E43400F583E0C394FF5E
:1004EA00500D74982FF582E43400F583E004F0741B
:1004FA00982FF582E43400F583E06464705475162D
:10050A0005EF2481FF749F2EF582E43400F583EF12
:10051A00F090009E7405F02274982FF582E434005E
:10052A00F583E0FDD39402401DED946450187516CE
:10053A0005EF04FD749F2EF582E43400F583EDF097
:10054A0090009E7405F074982FF582E43400F583C8
:02055A00E4F0CB
:01055C00227C
:1008CE00E537D3940040012220B202800320B30505
:0708DE00753705C322D32288
:10087A00759A50438E0475D7C875D6FE438E107587
:10088A00AF017E007F0B7D007B017A0079000201B7
:01089A00A9B4
:0F06C500EFF07B017A00796F900083E0FD7C00FD
:0A06D4008B288A29892A8C2B8D2C93
:1006DE00E4F52DF52EF52DF52EC3E52E952CE52DF5
:1006EE00952B501DAB28AA29A92A852E82852D83EC
:1006FE00120155FF1207D3052EE52E70DC052D8055
:01070E00D812
:01070F0022C7
:1007D300900003E0FCA3E0243DF58274003CF58324
:1007E300EFF0900003E475F001120182FEC3E5F01F
:1007F3009432EE94004007E4900003F0A3F09000DD
:0A08030005E0700504F0439A02229C
:030043000201D5E2
:1001D500C0E0C0F0C083C082C0D075D008E59A30B9
:1001E500E06B753705539AFE90000AE0705FC39087
:1001F5000008E09432900007E094004004E4F0A386
:10020500F0900007E0FEA3E0240BF58274003EF5B4
:1002150083E59BF0900008E004F07006900007E08D
:1002250004F09000097402F090000BE0B4FF17D3BE
:10023500900008E09401900007E09400400F9000C2
:100245000CE064AA6007900007E4F0A3F0E59A309B
:10025500E14D753705539AFD900003E0FEA3E0FFDD
:10026500900001E0FCA3E0FD6F7002EC6E602B7462
:100275003D2DF58274003CF583E0F59B900001E48B
:1002850075F001120182FEC3E5F09432EE94004050
:100295000E900001E4F0A3F08005900005E4F0D095
:0A02A500D0D082D083D0F0D0E03238
:10079500900006E07003120423900009E0702ED348
:1007A500900008E09400900007E09400401F90003E
:1007B5000A7401F0FB7A00790B900007A3E0FD12A3
:0E07C500036AE4900007F0A3F090000AF0220F
:10067300EF24CE6026047049BD3006E49000A1F05B
:1006830022BD31059000A18021BD32059000A180DB
:1006930023ED6433702B9000A18023BD3006E490DA
:1006A30000A4F022BD31079000A47401F022BD32F2
:1006B300079000A47402F022BD33069000A47403D3
:0206C300F02223
:0E0844002407FF900083F0FD7B017A00796F9E
:060852008B288A29892A87
:10085800E4FFFEED14FCEEC39C5013AB28AA29A9B3
:100868002A8E827583001201552FFF0E80E56307DB
:01087800FF80
:01087900225C
:020754008D27EF
:10075600AF277E0078847C007D0112011690008709
:10076600E04480F0A3E0540FF07B017A007984AD79
:100776002712085274832527F582E43400F583EFA7
:0F078600F07B017A007984E527FD7C000206D420
:06036A008B228A23892486
:1003700012013CF460030204229000011201556452
:10038000AA60030204229000051201552407F526F5
:10039000D39D4003020422AD26120852E5267C00BC
:1003A00024FFF582EC34FFF583AB22AA23A92412A3
:1003B00001556F706DC20AE4F514900004120155E6
:1003C00024FA602514605014604D248724FD5002E7
:1003D0008050AB22AA23A924900002120155651572
:1003E0007040C20AC209C20B22E4F525E52524317A
:1003F000FFE5252406F582E433F583AB22AA23A981
:10040000241201552430FD1206730525E525C394F9
:100410000340D9C2068000AB22AA23A924AD26122C
:0204200007547F
:0104220022B7
:10042300300B030204C990009FE060616486605D45
:10043300051590006F74FFF0A374AAF0A3E515F0FF
:10044300A37401F0A304F0A3F090009FE0FE540F07
:10045300900075F0EE30E706A37402F0800690007A
:10046300767401F0900074E012084490007712064D
:10047300C59000067432F0D2099000A0E0600890A5
:10048300009FF0E4A3F022E490009FF022E5347093
:10049300350515300A0575343C8003753402900028
:1004A3006F74FFF0A374AAF0A3E515F0A37401F031
:1004B300A3F0E4A3F01208449000751206C590005F
:0704C300067432F0D2092299
:0300000002055D99
:0C055D00787FE4F6D8FD7581390205A412
:10004600E709F608DFFA8046E709F208DFFA803E9C
:1000560088828C83E709F0A3DFFA8032E309F60889
:10006600DFFA8078E309F208DFFA807088828C83F1
:10007600E309F0A3DFFA806489828A83E0A3F608A5
:10008600DFFA805889828A83E0A3F208DFFA804C7F
:1000960080D280FA80C680D4806980F28033801056
:1000A60080A680EA809A80A880DA80E280CA8033BF
:1000B60089828A83ECFAE493A3C8C582C8CCC58337
:1000C600CCF0A3C8C582C8CCC583CCDFE9DEE78007
:1000D6000D89828A83E493A3F608DFF9ECFAA9F086
:1000E600EDFB2289828A83ECFAE0A3C8C582C8CCDC
:1000F600C583CCF0A3C8C582C8CCC583CCDFEADEF5
:10010600E880DB89828A83E493A3F208DFF980CC56
:1001160088F0EF60010E4E60C388F0ED2402B4044F
:100126000050B9F582EB2402B4040050AF232345F6
:0601360082239000967385
:10013C00BB010689828A83E0225002E722BBFE02C1
:09014C00E32289828A83E49322F4
:10015500BB010CE58229F582E5833AF583E022505F
:1001650006E92582F8E622BBFE06E92582F8E222A9
:0D017500E58229F582E5833AF583E49322C3
:10018200C5F0F8A3E028F0C5F0F8E5821582700208
:060192001583E038F022A5
:10019800EB9FF5F0EA9E42F0E99D42F0E89C45F0BD
:0101A8002234
:1001A900EF4E6012EF60010EEDBB010B89828A836D
:1001B900F0A3DFFCDEFA2289F05007F709DFFCA97A
:0C01C900F022BBFEFCF309DFFCA9F022D1
:100569000205E9E493A3F8E493A34003F68001F2BA
:1005790008DFF48029E493A3F85407240CC8C33393
:10058900C4540F4420C8834004F456800146F6DF62
:10059900E4800B010204081020408090089BE47E4F
:1005A900019360BCA3FF543F30E509541FFEE49357
:1005B900A360010ECF54C025E060A840B8E493A31E
:1005C900FAE493A3F8E493A3C8C582C8CAC583CA49
:1005D900F0A3C8C582C8CAC583CADFE9DEE780BE01
:0108B6000041
:00000001FF
