:10080E008F268E258D248C23E5262513F526E525AA
:10081E003512F525E5243511F524E5233510F5239C
:10082E00AF13AE12AD11AC10AB26AA25A924A82386
:07083E00D312019850EA22D9
:1008D2008F22AF221522EF600D7F647E007D007CA7
:0708E2000012080E80EC2259
:10093D0075BA8090FE00E4F0A37402F0E4F5BA22DB
:10091600538E7F5389F0758A18758CFCC28DD28CE4
:05092600D2A9D2AF22AE
:10089C00013500013200C100C104013300013600F2
:0608AC00013800013900D3
:10092B00D20AC2017537057534C8E490009FF0A355
:02093B00F022A8
:1005ED00C297C2AF12093D12091612087BD2AFC2D3
:1005FD0096C2B57F281208D2439180439280C2974C
:10060D007F281208D2D20512092B90009EE070119E
:10061D0090009FE07004A3E06007E490009FF0A3BA
:10062D00F090009FE064866005A3E0B48609D203D4
:0C063D00E490009FF0A3F01208E95026A2
:1006490075AAA075AB8075870200000000B2080585
:100659002FE52FC3940A400EE4F52FB207E534D3F2
:060669009400400215346C
:05066F0012079680A3B4
:03000B0002036E7F
:0D036E00C0E0C0F0C083C082C0D075D018C0
:10037B000530AF13AE12AD11AC10EF2401F513E441
:10038B003EF512E43DF511E43CF510900009E0D385
:10039B0094004003E014F0E530C3941440787530BA
:1003AB0000A2B24003D38001C3920CE4FF1204CE2F
:1003BB00A2B34003D38001C3920C7F011204CE90F1
:1003CB000006E0D394004003E014F00538E538C391
:1003DB009405403F753800433502B2080539E539BD
:1003EB00940A402F753900B207E537D394004002C9
:1003FB001537E534D3940040021534E531D394001E
:10040B004005753705153190009EE0D394004003ED
:06041B00E014F01208B825
:0B042100D0D0D082D083D0F0D0E032E9
:100711009000A4E014600E14600F146012240370A2
:1007210012D2B4800EC2B4800AA20892B48004A28C
:100731000792B49000A1E014600D14600D14600FD5
:100741002403700FD2CD22C2CD22A20892CD22A2C3
:040751000792CD221C
:1008B80020010B300A119000A47401F08009E49023
:0A08C80000A1F09000A4F002071157
:10000E00E4F593F594F591F592F595F596F5B1F530
:10001E00B2F5B3F5B453B1EF53B2EF53B1DF53B200
:08002E00DF53B1F353B2F322DA
:10090000E49000A4F09000A3F09000A2F09000A169
:06091000F0D2B4D2CD22AA
:0508B20042009F000060
:1004CE0090009FE060047E018002E4FE300C4975CE
:1004DE00370574982FF582E43400F583E0C394FF5A
:1004EE00500D74982FF582E43400F583E004F07417
:1004FE00982FF582E43400F583E064647054751629
:10050E0005EF2481FF749F2EF582E43400F583EF0E
:10051E00F090009E7405F02274982FF582E434005A
:10052E00F583E0FDD39402401DED946450187516CA
:10053E0005EF04FD749F2EF582E43400F583EDF093
:10054E0090009E7405F074982FF582E43400F583C4
:02055E00E4F0C7
:010560002278
:1008E900E537D3940040012220B202800320B305EA
:0708F900753705C322D3226D
:10087B00759A50438E0475D7C875D6FE438E107586
:10088B00AF017E007F0B7D007B017A0079000201B6
:01089B00A9B3
:0F06C600EFF07B017A00796F900083E0FD7C00FC
:0A06D5008B288A29892A8C2B8D2C92
:1006DF00E4F52DF52EF52DF52EC3E52E952CE52DF4
:1006EF00952B501DAB28AA29A92A852E82852D83EB
:1006FF00120155FF1207D4052EE52E70DC052D8053
:01070F00D811
:0107100022C6
:1007D400900003E0FCA3E0243DF58274003CF58323
:1007E400EFF0900003E475F001120182FEC3E5F01E
:1007F4009432EE94004007E4900003F0A3F09000DC
:0A08040005E0700504F0439A02229B
:030043000201D5E2
:1001D500C0E0C0F0C083C082C0D075D008E59A30B9
:1001E500E06B753705539AFE90000AE0705FC39087
:1001F5000008E09432900007E094004004E4F0A386
:10020500F0900007E0FEA3E0240BF58274003EF5B4
:1002150083E59BF0900008E004F07006900007E08D
:1002250004F09000097402F090000BE0B4FF17D3BE
:10023500900008E09401900007E09400400F9000C2
:100245000CE064AA6007900007E4F0A3F0E59A309B
:10025500E14D753705539AFD900003E0FEA3E0FFDD
:10026500900001E0FCA3E0FD6F7002EC6E602B7462
:100275003D2DF58274003CF583E0F59B900001E48B
:1002850075F001120182FEC3E5F09432EE94004050
:100295000E900001E4F0A3F08005900005E4F0D095
:0A02A500D0D082D083D0F0D0E03238
:10079600900006E0700312042C900009E0702ED33E
:1007A600900008E09400900007E09400401F90003D
:1007B6000A7401F0FB7A00790B900007A3E0FD12A2
:0E07C60002AFE4900007F0A3F090000AF022CA
:10067400EF24CE6026047049BD3006E49000A1F05A
:1006840022BD31059000A18021BD32059000A180DA
:1006940023ED6433702B9000A18023BD3006E490D9
:1006A40000A4F022BD31079000A47401F022BD32F1
:1006B400079000A47402F022BD33069000A47403D2
:0206C400F02222
:0E0845002407FF900083F0FD7B017A00796F9D
:060853008B288A29892A86
:10085900E4FFFEED14FCEEC39C5013AB28AA29A9B2
:100869002A8E827583001201552FFF0E80E56307DA
:01087900FF7F
:01087A00225B
:020755008D27EE
:10075700AF277E0078847C007D0112011690008708
:10076700E04480F0A3E0540FF07B017A007984AD78
:100777002712085374832527F582E43400F583EFA5
:0F078700F07B017A007984E527FD7C000206D51E
:0602AF008B228A23892442
:1002B50012013CF4600302036D90000112015564C4
:1002C500AA600302036D9000051201552407F52667
:1002D500D39D400302036DAD26120853E5267C002D
:1002E50024FFF582EC34FFF583AB22AA23A924125F
:1002F50001556F7073C20AE4F5149000041201559C
:1003050024FA6025146050146051248724FD50029E
:100315008056AB22AA23A924900002120155651527
:100325007046C20AC209C20B22E4F525E52524312F
:10033500FFE5252406F582E433F583AB22AA23A93C
:10034500241201552430FD1206740525E525C394B4
:100355000340D9C2068006D2018002C201AB22AA9F
:0803650023A924AD261207555F
:01036D00226D
:10042C00300B030204CD90009FE060616486605D38
:10043C00051590006F74FFF0A374AAF0A3E515F0F6
:10044C00A37401F0A304F0A3F090009FE0FE540FFE
:10045C00900075F0EE30E706A37402F08006900071
:10046C00767401F0900074E0120845900077120643
:10047C00C69000067432F0D2099000A0E06008909B
:10048C00009FF0E4A3F022E490009FF022E534708A
:10049C003020012D05157534C890006F74FFF0A342
:1004AC0074AAF0A3E515F0A37401F0A3F0E4A3F093
:1004BC001208459000751206C69000067432F0D2F0
:0204CC00092203
:0300000002056195
:0C056100787FE4F6D8FD7581390205A80A
:10004600E709F608DFFA8046E709F208DFFA803E9C
:1000560088828C83E709F0A3DFFA8032E309F60889
:10006600DFFA8078E309F208DFFA807088828C83F1
:10007600E309F0A3DFFA806489828A83E0A3F608A5
:10008600DFFA805889828A83E0A3F208DFFA804C7F
:1000960080D280FA80C680D4806980F28033801056
:1000A60080A680EA809A80A880DA80E280CA8033BF
:1000B60089828A83ECFAE493A3C8C582C8CCC58337
:1000C600CCF0A3C8C582C8CCC583CCDFE9DEE78007
:1000D6000D89828A83E493A3F608DFF9ECFAA9F086
:1000E600EDFB2289828A83ECFAE0A3C8C582C8CCDC
:1000F600C583CCF0A3C8C582C8CCC583CCDFEADEF5
:10010600E880DB89828A83E493A3F208DFF980CC56
:1001160088F0EF60010E4E60C388F0ED2402B4044F
:100126000050B9F582EB2402B4040050AF232345F6
:0601360082239000967385
:10013C00BB010689828A83E0225002E722BBFE02C1
:09014C00E32289828A83E49322F4
:10015500BB010CE58229F582E5833AF583E022505F
:1001650006E92582F8E622BBFE06E92582F8E222A9
:0D017500E58229F582E5833AF583E49322C3
:10018200C5F0F8A3E028F0C5F0F8E5821582700208
:060192001583E038F022A5
:10019800EB9FF5F0EA9E42F0E99D42F0E89C45F0BD
:0101A8002234
:1001A900EF4E6012EF60010EEDBB010B89828A836D
:1001B900F0A3DFFCDEFA2289F05007F709DFFCA97A
:0C01C900F022BBFEFCF309DFFCA9F022D1
:10056D000205EDE493A3F8E493A34003F68001F2B2
:10057D0008DFF48029E493A3F85407240CC8C3338F
:10058D00C4540F4420C8834004F456800146F6DF5E
:10059D00E4800B010204081020408090089CE47E4A
:1005AD00019360BCA3FF543F30E509541FFEE49353
:1005BD00A360010ECF54C025E060A840B8E493A31A
:1005CD00FAE493A3F8E493A3C8C582C8CAC583CA45
:1005DD00F0A3C8C582C8CAC583CADFE9DEE780BEFD
:0108B7000040
:00000001FF
